:020000040800F2
:1000000028070020350200083B310008D92D0008E0
:1000100039310008831B0008C732000800000000C7
:100020000000000000000000000000003F31000858
:10003000851B0008000000003D3100084131000828
:100040004F0200084F0200084F0200084F0200084C
:100050004F0200084F0200084F0200084F0200083C
:100060004F0200084F0200084F0200084F0200082C
:100070004F0200084F0200084F0200084F0200081C
:100080004F0200084F0200084F0200084F0200080C
:100090004F0200084F0200084F0200084F020008FC
:1000A0004F0200084F0200084F020008A531000867
:1000B0004F0200084F0200084F0200084F020008DC
:1000C0004F0200084F0200084F0200084F020008CC
:1000D0004F0200084F0200084F0200084F020008BC
:1000E0004F0200084F0200084F02000800F002F81B
:1000F00000F090F80AA090E8000C82448344AAF132
:100100000107DA4501D100F085F8AFF2090EBAE82F
:100110000F0013F0010F18BFFB1A43F0010318473B
:10012000F038000010390000103A24BF78C878C1B8
:10013000FAD8520724BF30C830C144BF04680C60ED
:10014000704700000023002400250026103A28BF35
:1001500078C1FBD8520728BF30C148BF0B60704739
:100160006E2900F08181702900F0C382662903F0B6
:100170004983652903F04683672903F04383612996
:1001800003F0428303681B0A28BF41F080016929FC
:1001900000F02E81642900F02B81752900F0288160
:1001A0006F2900F05082782900F08F82E92900F051
:1001B000EB81E42900F0E881F52900F0E581EF29E1
:1001C00000F04D82F82900F08E820368DB0928BF19
:1001D00041F08001632900F09187732900F0968730
:1001E000E32900F0A187F32900F0A68700207047DB
:1001F0001FB500F0F3FF04000020002103F0A6F972
:10020000401C60600020002103F08AF9E0601FBDFF
:1002100010B510BD00F0B4FF1146FFF7E9FF03F081
:100220003BF901F091F803B4FFF7F2FF03BC01F0D2
:10023000D9F800000948804709480047FEE7FEE773
:10024000FEE7FEE7FEE7FEE7FEE7FEE7FEE7FEE786
:1002500004480549054A064B70470000A1310008D3
:10026000ED000008280100202807002028030020B6
:10027000280300201CB50C46064B7B4469460090C1
:10028000204600F00AF904460020694600F018F9FB
:1002900020461CBD4302000010B5431C02E010F8CC
:1002A000011B71B18107FAD14FF0013202C88C1ADB
:1002B0008C4314EAC211F9D0C01A0A0603D0C01E3A
:1002C00010BDC01A10BD0A0401D0801E10BD090265
:1002D000FCD0401E10BD4FF0000200B513469446FE
:1002E0009646203922BFA0E80C50A0E80C50B1F18E
:1002F0002001BFF4F7AF090728BFA0E80C5048BFA2
:100300000CC05DF804EB890028BF40F8042B08BF3F
:10031000704748BF20F8022B11F0804F18BF00F83B
:10032000012B704770477047704770B50446856968
:100330000068C10601D5302600E02026C00707D09E
:1003400070BDD4E9012130469047206A401C2062EC
:100350006D1EF6D570BD70B5044685690078C0077E
:1003600007D170BDD4E9012120209047206A401CAC
:1003700020626D1EF6D570BD09684A0501D540B2F0
:100380007047C905FCD500B2704709684A0501D518
:10039000C0B27047C905FCD580B2704770B50C4635
:1003A0000546012A05D02878800600D5EA69002391
:1003B00002E0012305E05B1C934202D2E05C0028CE
:1003C000F9D1A869E618C01AA861286A18442862F9
:1003D0002846FFF7AAFF04E0D5E9012114F8010B34
:1003E0009047B442F8D32846FFF7B5FF70BD000030
:1003F0002DE9F0410646002410687529314616A5FE
:1004000010D0FFF7B9FF002802DA404213A507E039
:1004100031688A0701D512A502E0490704D511A564
:10042000012401E0FFF7B1FF00210A2206F12407B1
:1004300009E0B0FBF2FCB0FBF2F302FB1C00303031
:1004400078541846491C0028F3D123462A463046E2
:10045000BDE8F04100F061BA000000002D0000008E
:100460002B0000002000000011680268006A53059C
:1004700001D508700AE0D30501D5088006E013060F
:1004800003D5C217C1E9000200E0086001207047EF
:1004900001694A1C02610878704700B58FB0CDE948
:1004A00001310021059105497944CDE90310114638
:1004B000684600F029F90FB000BD0000E5FFFFFF1E
:1004C0000A6802F8010B0A60704700002DE9FF5F1F
:1004D00015468A460446DFF8AC80F8440027D8E980
:1004E00000103E46CDE9001010E03AF816106A46BA
:1004F00002A800F025FE411C07D02178890603D50B
:10050000E269391891420DD80744761C207880069C
:1005100002D5E069B84205DDAE42E6DB3AF81600E6
:100520000028E2D1A069C01BA0612046FFF7FDFEB4
:10053000D8E90010CDE90010002017E03AF81810B3
:100540006A4602A800F0FCFDB0F1FF3F81460BD0E7
:1005500000250DF1080B05E0D4E901211BF8050089
:1005600090476D1C4D45F7D308F10100B04280461D
:10057000E4DB206A384420622046FFF7ECFEBDE849
:10058000FF9F0000363400002DE9F0418046D21D67
:1005900022F007020025D2E90002F52915A614D0A1
:1005A000011E72F1000106DA0023D0EB030063EBB9
:1005B000020211A608E0D8F800108B0701D50FA69B
:1005C00002E0490701D50EA601251146002408F1D5
:1005D000240704E000F05CF930323A55641C50EA1C
:1005E0000102F7D12B46324621464046BDE8F04194
:1005F00000F093B9000000002D0000002B00000067
:100600002000000030B4002100F1240408E002F0D2
:100610000705D208303542EA4372DB086554491CAD
:1006200052EA0305F3D10468002310A2250707D579
:10063000A40600D421B1C46901230DA2641EC461C3
:1006400030BC00F06AB910B5044621461068FFF7C7
:100650009CFE02462046BDE810400023D2E7D21D92
:1006600022F00701D1E90023CCE7000000000000E0
:1006700030000000F0B40D460188090502D5214C78
:100680007C4402E01F4C7C440E34002100F124061F
:1006900008E002F00F071209E75D42EA03721B0946
:1006A0007754491C52EA0307F3D10278002312075A
:1006B00004D5702D06D009B1022311342246F0BCB6
:1006C00000F02BB901231034F8E770B504460D464D
:1006D00021461068FFF759FE024629462046BDE82C
:1006E00070400023C6E7D21D22F00703D3E90023A0
:1006F000C0E70368126843F0200303600823C36166
:100700000023B7E7983200002DE9F05F89460446E0
:100710004FF0000ADFF874B1FB44C0F820A0204677
:10072000E1688847002874D0252806D0D4E9012143
:100730009047206A401C2062F1E700265F46204671
:10074000E16888472028054607DB312D05D2781956
:1007500010F8200C08B10643F1E7B00701D526F0E8
:100760000406C4F81CA00027C4F818A02A2D09D03C
:10077000284602F0CDFD38B304EB8708303DC8F8B9
:10078000185019E059F8041B204604EB87029161C8
:10079000E1688847012F054618D1E069002820DA72
:1007A00026F020061DE0D8F8180000EB800005EBCD
:1007B00040003038C8F818002046E16888470546F0
:1007C00002F0A6FD0028EED1012F0AD02E2D08D16F
:1007D0002046E16888477F1C0546022F46F0200628
:1007E000C4DBA069002803DA404246F00106A0619C
:1007F000F00701D026F010066C2D0BD0682D09D023
:100800004C2D39D06A2D35D0742D35D07A2D33D07A
:1008100016E038E0E1682F4620468847B842054692
:1008200009D16C2F26D04FF48060E1680643204642
:100830008847054604E06C2F1AD04FF480700643B9
:100840000DB3A5F14100192802D8203546F4006601
:100850004A462946204626604E46FFF781FC80B175
:1008600001280BD0F61D26F0070000F1080956E715
:100870004020E4E78020D8E70020D6E706F104090D
:100880004DE7284652E7206ABDE8F09F2832000075
:1008900030B5B0F10A024FEA900E71F100034EEA52
:1008A000817EB0EB0E0061EB91014FEA101E4EEA23
:1008B000017E10EB0E0041EB11114FEA102E4EEAB3
:1008C000016E10EB0E0041EB11214FEA104E4EEA83
:1008D000014E10EB0E0041EB1141401841F10001B7
:1008E0004FEAD00040EA41704FEAD10110EB800599
:1008F0004FEA810444EA907444EB01046D1944EB1F
:100900000404521BA3414FF0000348BF0A3200D534
:1009100030BD401C41F1000130BD2DE9F0470D46CE
:1009200099469246044600F124080168880604D5D9
:10093000E06921F01001216000E00120A84201DD02
:10094000471B00E00027A1697A1902EB0900081A89
:10095000A0612078C00602D42046FFF7E6FC0026FE
:1009600008E0D4E901211AF806009047206A401CEB
:10097000761C20624E45F4DB2078C0060AD520465E
:10098000FFF7D3FC06E0D4E9012130209047206A2C
:10099000401C2062381EA7F10107F4DC07E0D4E90F
:1009A000012118F805009047206A401C2062281E8B
:1009B000A5F10105F3DC2046FFF7CDFC2078000609
:1009C00002D50220BDE8F0870120FBE770472DE942
:1009D000FF4F0C461E464FF0FF378BB0D2E90001A7
:1009E000DDF860800A908A46C1F30A5505B93D4694
:1009F000002108464FF00000BAF1000F00F440005B
:100A000005DA00EB80004FF4400101EA50004FEAA4
:100A10009059B9F1010F00DDB9460A9850EA4A0031
:100A20000ED044F61050A5F2FF3545432F14B8F10F
:100A3000000F1ED07542291E1EDDC9F100021CE008
:100A4000B8F1010F4FF0000001D0302103E0F24374
:100A500005E02154401CB042FBDB3046002200215F
:100A600021540B99C1F80880C1E900200FB0BDE8FE
:100A7000F08FBD1B6D1CDEE74A4600DA694206A80E
:100A800000F0F0FB06AB93E8070003AB83E8070038
:100A900050460A9900F0ADFC8DE80700A0F5005023
:100AA0001F3800900398002D0ADD42F21F014A46CC
:100AB0000844002303A90390684600F016FF09E0EC
:100AC000A0F500504A461F38002303A9039068464A
:100AD00000F020FF8DE807000004000C03D04FF069
:100AE000FF30410800E01046B8F1000F03D00022AB
:100AF000009215461EE0751E05D4FFF7C9FE303280
:100B000062556D1EF9D5B3460122084302D000227A
:100B10007F1C04E02078302801D100227F1E002AAB
:100B2000099784D01DE0112D07DAFFF7B1FE3032AE
:100B300062556D1C50EA0102F5D1084302D00098BD
:100B4000C8B10EE00021681E05E0235C625C6354BE
:100B50002254401E491C8142F7DBAB46A81B401EB5
:100B60000990002004F80B000B98099AC0F808803F
:100B7000C0E9002B7AE711264FF0000857E72DE96E
:100B8000F04F88460446D21D22F0070191B0D1E90A
:100B90000001CDE90A0102F097FB02460B98C00F55
:100BA00001D02D2007E02068810701D52B2002E02D
:100BB000202101EAC000032A099001D0072A05DBA1
:100BC00003464146204600F00DFB0BE120788006ED
:100BD00001D5E06900E00620B8F1650F814606D036
:100BE000B8F1660F18D0B8F1670F70D131E000206E
:100BF000B9F1110F009001DB112301E009F10103AC
:100C00000AAA01A90CA8FFF7E2FEDDE90C70002694
:100C100009F10105834647E001204B4600904FF063
:100C200000470AAA01A90CA8FFF7D1FEDDE90DB023
:100C30000C995D46002610B909F101000D18B9EBB9
:100C4000050003D4C0F1FF3609F10105A5EB090049
:100C50002BE0B9F1010F01DA4FF001090020B9F1E1
:100C6000110F0090484601DD112300E003460AAA57
:100C700001A90CA8FFF7ABFEDDE90C704D4600267C
:100C80008346207800070AD4AB4500DA5D4601A808
:100C9000012D04DD411911F8011C302907D04F4501
:100CA00002DA17F1040F04DA012082460FE06D1E0C
:100CB000EEE7002F02DCED1B3E4403E0781CA84267
:100CC00000DD7D1CB81B00F1010A4FF000472078C1
:100CD000000703D4AA4501DB4FF0FF3A0021B7F12A
:100CE000004F0DF143088DF8431024D002202B2330
:100CF000002F01DA7F422D230A21021EA0F10100FC
:100D000000DC5FB197FBF1FC97FBF1F201FB1C7C6F
:100D100017460CF1300C08F801CDEEE7A8F1010000
:100D200003702188090501D5452100E06521A0F166
:100D3000010800F8011C09980FA9A1EB0807FF1D85
:100D400000B10120411901EBEA70A1693844081A89
:100D5000401EA0612078C00602D42046FFF7E5FAC5
:100D6000099828B1D4E901219047206A401C2062EB
:100D70002078C00622D52046FFF7D7FA1EE0002EC5
:100D800004DBB34502DD01A8805D00E03020D4E93A
:100D900001219047206A401C2062761CAAF10100C4
:100DA0005FEA000A0AD100F019FAC0680168405CE5
:100DB000D4E901219047206A401C2062281EA5F139
:100DC0000105DCDC07E0D4E9012118F8010B9047AC
:100DD000206A401C2062381EA7F10107F3DC204680
:100DE000FFF7B9FA032011B041E600002DE9F04FFA
:100DF00004460D46D21D22F0070089B0D0E90097C5
:100E00004846394602F060FA0246F80F01D02D2319
:100E100007E02068810701D52B2302E0202101EAA9
:100E2000C0038DF820300BB1012000E00020032A20
:100E3000824601D0072A04DB2946204600F0D2F979
:100E40003FE12078800601D40D2500E0E569C7F375
:100E50000A560D2D49DA00214FEA175B08464FF07C
:100E60000000002F00F4400007DA00EB80004FF490
:100E7000400100EBD07001EA60008115012901DD1D
:100E80004FF0FF3100224FEA850CBCF1180F06D35A
:100E90001346ACF118004FF08052C24003E04FF40B
:100EA000801323FA0CF30CF10C0CBCF1200F04D3CB
:100EB000ACF1200C09FA0CF001E007FA0CF0002963
:100EC0004FF0004801DD18B90FE00ED140450CD3BA
:100ED00019EB02095F4121B9404502D19F4329EA3C
:100EE0000209BBEB175F00D0761C2088000502D5F5
:100EF0007B48784402E07A487844193808AA3023BD
:100F000002F80A30037C0AF10101002E0AF1020AFC
:100F100053546A4602DC4FF0300101E04FF03101DA
:100F20004FF001088DF8001002D0A6F2FF3603E062
:100F300059EA470100D06B4E002D02DC21780907E9
:100F400004D54FF002082E218DF80110C44600216F
:100F50000BE0C7F303433F01C35C491C6D1E02F85D
:100F60000830052908F1010801DA002DF1DC002123
:100F70000CE000EB1973491C1B786D1E082902F860
:100F800008304FEA091908F1010801DA002DF0DCF8
:100F900021688B0602D516E0A8F10108E04505DDC1
:100FA00002EB080313F8013C302BF5D0B8F1000F29
:100FB00009DD02EB080313F8013C2E2B03D10907CE
:100FC00001D4A8F10108002D05DD3E2102F808102A
:100FD0006D1E08F10108407C002E02F8080008F19F
:100FE000010804DA2D20764202F8080002E02B20E6
:100FF00002F808000A214FF47A70864208F10108CD
:101000000BDB96FBF0F3303302F8083096FBF0F37D
:1010100008F1010800FB136601E0642E0CDB64207C
:1010200096FBF0F3303302F8083096FBF0F308F14A
:10103000010800FB136601E00A2E06DB96FBF1F0C7
:10104000303002F8080008F1010896FBF1F001FBCE
:101050001060303002F80800A16908F1010808EBBF
:10106000050202EB0A00081AA0612078C00602D42B
:101070002046FFF75AF9216A08AE01EB0A00206208
:1010800004E0D4E9012116F8010B9047BAF1010AF6
:10109000F7D22078C00602D52046FFF746F96E4603
:1010A00009E016F8010B3E280FD0D4E90121904742
:1010B000206A401C2062B8F10108F2D22046FFF7F6
:1010C0004AF909B00320BDE8F08F206A2844206265
:1010D00003E0D4E90121302090476D1EEBD3F8E7FF
:1010E000722A000002FCFFFF10B5436913B1AFF391
:1010F000008001E0FFF752F9012010BD127800F1E5
:1011000024010A7000224A700122EDE711684FF0B5
:10111000FF32E9E710B5436913B1AFF3008001E096
:10112000FFF7D4F9012010BD128800F12401828458
:101130000022C2840122EDE711684FF0FF32E9E797
:1011400070B516460C46054600F040F8036893F863
:101150000101012806D0FF2C0FD8185D68B10120CD
:101160002C7070BDD3F807013246214603F20713F5
:1011700003442846BDE8704018474FF0FF3070BD6B
:10118000754600F0EBF8AE4605006946534620F080
:101190000700854618B020B5FFF75AF8BDE8204093
:1011A0004FF000064FF000074FF000084FF0000B23
:1011B00021F00701AC46ACE8C009ACE8C009ACE8D6
:1011C000C009ACE8C0098D467047000010B500F0BA
:1011D00005F8001D10BD00BF7523000000487047D2
:1011E000E80000202DE9F0411F460446032601686F
:1011F000072A01F4006004DB08B116A505E016A576
:1012000003E008B115A500E015A521F0100020604D
:10121000A069C01EA0610FB1401EA0612046FFF76B
:1012200084F84FB1D4E9012138469047206A401C28
:101230002062C01C206206E0206AFAE7D4E901219E
:1012400015F8010B9047761EF8D22046FFF783F879
:10125000BDE8F0814E414E006E616E00494E460081
:10126000696E66002DE9F047814616468AB035481A
:1012700078440DC88DE80D0032487844801C03ACDA
:101280000DC884E80D0041F69B300844372190FBDF
:10129000F1F290FBF1F5A5F1800501FB12041B3C76
:1012A00002D56442012000E00020DFF898A08046CB
:1012B0000027FA44AAF1BE0A0EE0E0070AD032463F
:1012C000684607EB470101230AEB810100F022FB8E
:1012D0008DE8070064107F1C002CEED1194F7F446D
:1012E000AE3F19E0E80715D007EB04100DF1180A1E
:1012F00090E80E008AE80E00C068F04201D198190B
:1013000008903246012306A903A800F003FB03ABB3
:1013100083E807006D10641C002DE3D14FF001033A
:1013200032466946B8F1000F03A802D000F0DDFA9A
:1013300001E000F0EFFAC9E90001C9F808200AB09D
:10134000BDE8F0878427000010B50446AFF30080A5
:101350002046BDE81040FEF766BF00000048704719
:10136000C80000204FF0013C50F8042B51F8043B1A
:101370009A4221D1A2EB0C03934313EACC1317D169
:1013800050F8042B51F8043B9A4215D1A2EB0C0300
:10139000934313EACC130BD150F8042B51F8043BC0
:1013A0009A4209D1A2EB0C03934313EACC13DBD08E
:1013B0004FF00000704700BFD01A01BAB1FA81F1B6
:1013C00001F0180122FA01F0CB40C1F12001DBB29B
:1013D000C0B2C01A2CFA01F3D11A914311EAC31119
:1013E000E6D1704701491820ABBEFEE72600020097
:1013F00070475FEA400C08BF91F0000F4FEA8C2362
:101400004FEAC12243EA51514FEA1C5018BF00F580
:10141000F0404FEA300018BF41F000415FEA6C5CD9
:1014200000F02980BCF1FF3F08BF40F080407047CA
:10143000130C06BF12044FF0100C4FF0000C130EEB
:1014400004BF12020CF1080C130F04BF12010CF1BF
:10145000040C930F04BF92000CF1020CD30F04BFD5
:1014600052000CF1010C11464FF00002A0F11F00D8
:10147000A0EB0C00704711F0004F08BF704731F02F
:1014800000413FF4D5AF0B0C06BF09044FF0100C20
:101490004FF0000C0B0E04BF09020CF1080C0B0FEF
:1014A00004BF09010CF1040C8B0F04BF89000CF17F
:1014B000020CCB0F04BF49000CF1010CCCF120034E
:1014C000A0EB0C0022FA03F302FA0CF241EA03014A
:1014D00000F10100704720F07F4C80EA030023F008
:1014E0007F47ACEB070303F57C5300F0004003F1AA
:1014F000FF032DE980494FEA154B09B44FEA144325
:1015000025EA0B4E24EA03480FF2042606EB1327C4
:1015100049083E785FEA320203FB0667C7F5000719
:1015200007FB06F64FEA54374FEAD64606F10206A5
:1015300007FB066CCCF1005C4FEA1C472CEA074C19
:1015400007FB06F40CFB06F504EB15464FEA96166E
:1015500034BF00204FF000404FEAD13706FB07FCB4
:101560004FEA1C4C0CFB0BF7D21B03FB0CF761EB97
:1015700007010CFB0EF7B0EB074072EB17420CFBB8
:1015800008F734BFA2EB0742B2EB074261EB174109
:101590004FEA0C444FEA910706FB07FC4FEA1C4C4C
:1015A0000CFB0BF7B0EBC74072EB573203FB0CF7A9
:1015B00034BFA2EBC742B2EBC74261EB57310CFB21
:1015C0000EF7B0EBC70072EB57720CFB08F734BF95
:1015D000A2EBC702B2EBC70261EB5771039F4FEA60
:1015E000816141EA921104EBCC044FEAD1374FEA12
:1015F000826206FB07FC42EA90124FEA80604FEAE3
:101600001C4C0CFB0BF7D21B03FB0CF761EB070127
:101610000CFB0EF7B0EB074072EB17420CFB08F720
:1016200034BFA2EB0742B2EB074261EB17414FEA2E
:101630008C554FEA910704EB9C2406FB07FC4FEA0C
:101640001C4C0CFB0BF7B0EBC74072EB573203FBA3
:101650000CF734BFA2EBC742B2EBC74261EB573184
:101660000CFB0EF7B0EBC70072EB57720CFB08F7E0
:1016700034BFA2EBC702B2EBC70261EB577115EBA7
:101680004C254FEA816141EA92114FEA82624FEAAA
:10169000D13742EA901206FB07FC44F100044FEAFE
:1016A00080604FEA1C4C0CFB0BF7D21B03FB0CF7C2
:1016B00061EB07010CFB0EF7B0EB074072EB174232
:1016C0000CFB08F734BFA2EB0742B2EB074261EB19
:1016D000174115EB1C154FEA813141EA92414FEA5F
:1016E000823242EA90424FEA80304FEA0C7644F16F
:1016F000000448EA03434EEA0B484FF0000EB2EBF9
:10170000080C71EB030724BF624639464EEB0E0E00
:101710004FF0000B0018524149414BEB0B0BB2EB61
:10172000080C71EB03077BF1000B24BF62463946BE
:101730004EEB0E0E4FF0000B0018524149414BEB9F
:101740000B0BB2EB080C71EB03077BF1000B24BF12
:10175000624639464EEB0E0E51EA020718BF46F0BC
:10176000010616EB0E7655F1000254F1000103D587
:10177000BDE88901BDE80088BDE88901BDE80048F1
:10178000B619524141EB0101A3F10103704780807A
:101790007F7E7D7C7B7A79787776767574737271CB
:1017A00071706F6E6E6D6C6C6B6A6A696868676683
:1017B00066656464636362616160605F5F5E5E5D15
:1017C0005D5C5C5B5B5A5A59595858575756565589
:1017D00055555454535352525251515050504F4FEB
:1017E0004F4E4E4D4D4D4C4C4C4B4B4B4A4A4A493B
:1017F000494948484847474747464646454545447E
:101800004444444343434342424242414141002B0A
:101810009C4630D477002BD01CB54FEA370703B471
:101820004FF010004FF01001BAF1000F06D0BCF1DC
:10183000000FDCBF40F0080040F008014FF000004E
:101840000FBCBDE810400BF1010BBBF1010F08BF4D
:101850005FEA170722BF12F1010211F101014FF0F7
:10186000004143F1000300F0004043EA00007047EC
:10187000F9D35708D0E746EA064613F1400F4FEA7E
:1018800016461FDD13F1200FDFBF16430A46002165
:1018900020335B42BED0C3F1200746EA064602FA77
:1018A00007F74FEA164646EA0706C3F1200722FA71
:1018B00003F201FA07F721FA03F14FF0000342EABD
:1018C0000702A7E746EA020646EA06464FEA164638
:1018D00046EA0106BCBF46EA0646360C4FF0000356
:1018E0004FF000024FF0000194E72DE9804C9A463A
:1018F000934670B491E8380007C831EA400C48BFFD
:1019000034EA430C03D5FFF7E6FDFFF780FFF0BC98
:10191000BDE8008C2DE9804C9A46934670B491E85E
:10192000380007C810F0804F08BF13F0804F03D174
:1019300000F005F8FFF76BFFF0BCBDE8008C20F06D
:101940007F4780EA030023F07F4C07EB0C03A3F5ED
:101950007C5300F00040A3F1FE0392F0000F00F072
:10196000B38095F0000F00F077802DE901494FEA30
:1019700011404FEA144621EA004800FB06FC24EA25
:10198000064708FB06F607FB08F800FB07F718EB0D
:1019900006484CEB164C4FEA124B18EB07484FEA3F
:1019A00015464CEB174022EA0B4E0BFB06FC25EAD2
:1019B00006470EFB06F607FB0EFE0BFB07F71EEBBA
:1019C000064E4CEB164C4FF000061EEB074E4CEB50
:1019D000174B18EB0B0840F1000018EB0E0B58EBFF
:1019E000000840F100008F1A4FF000013CBFC943CE
:1019F000661B14BFB5EB040C00213CBFC943F61BAA
:101A00004FEA17444EEA8E0E27EA04454FEA1C4778
:101A100004FB07622CEA074C05FB07F70CFB05F6F5
:101A200004FB0CFC16EB074642EB174216EB0C4688
:101A300042EB1C421BEB060658EB0202414146EA10
:101A40009E0601D5BDE80189B619524141EB01015D
:101A5000A3F10103BDE801894FEA14454FEA11479C
:101A600024EA054621EA074C05FB07F406FB07F7C5
:101A70000CFB06F105FB0CFC11EB074144EB174492
:101A80004FEA124711EB0C4144EB1C4422EA074C8D
:101A900005FB07F206FB07F70CFB06F605FB0CFC43
:101AA00016EB074642EB174216EB0C4642EB1C4581
:101AB0006A1854F1000148BF7047B619524141EB12
:101AC0000101A3F10103704795F0000F37D04FEAF1
:101AD00011424FEA144721EA024624EA074C02FB6E
:101AE00007F106FB07F70CFB06F402FB0CFC14EBFA
:101AF000074441EB17414FEA154714EB0C4441EB07
:101B00001C4125EA074C02FB07F506FB07F70CFB17
:101B100006F602FB0CFC16EB074645EB174516EBE9
:101B20000C4645EB1C42121951F1000148BF7047A9
:101B3000B619524141EB0101A3F1010370474FEA8D
:101B400014454FEA114724EA054621EA074C05FBF4
:101B500007F106FB07F70CFB06F24FF0000605FB4A
:101B60000CFC12EB074241EB174112EB0C4251EB1C
:101B70001C4148BF7047921841EB0101A3F10103DA
:101B80007047FEE77047000070B5044600F004F9A6
:101B90000546601C02D004480078044400F0FCF8BC
:101BA000401BA042FAD370BD1C0000202DE9F84F65
:101BB000DFF8B891002409F1040A0AF1040B234666
:101BC0000F270BF1040EC9E00125A5402A40AA42C7
:101BD0007DD1674ED1F804C0ACEB0608B44532D0D5
:101BE00014DCBCF1030F3AD009DCBCF1000F2AD0A1
:101BF000BCF1010F1CD0BCF1020F31D11DE0BCF1D2
:101C0000110F17D0BCF1120F2AD119E0B8F5881FB7
:101C100019D006DCB8F5803F15D0B8F5801F1FD16C
:101C200011E0B8F5001F0ED0B8F5041F18D10AE076
:101C3000CB6815E0CB681B1D12E0CB6808330FE0C2
:101C4000CB680C330CE08B682BB1012B4FF00803F1
:101C500003D0456104E0042302E0056100E00023B5
:101C6000FF2A01D8064601E000F104064FEA840588
:101C700001D9A5F12005D6F8008007FA05FC28EA6D
:101C80000C0803FA05F548EA0508C6F800804D6817
:101C9000ED0062D5374DAE6946F00106AE61AD6923
:101CA00024F0030605F001050095334D06EB050C05
:101CB000DCF80850A607360F07FA06F825EA0805EB
:101CC000DFF8B880404503D14FF0000817E044E04A
:101CD000DFF8AC80404502D14FF001080FE0DFF89B
:101CE000A480404502D14FF0020808E0DFF8988058
:101CF000404502D14FF0030801E04FF0040808FA14
:101D000006F848EA0508CCF808804D68D9F8006064
:101D1000ED034D4601D5164300E096432E604D6815
:101D2000DAF80060AD03554601D5164300E096434E
:101D30002E604D68DBF80060ED025D4601D516436C
:101D400000E096432E604D68DEF80060AD027546F7
:101D500001D5164300E096432E60641C0D682A46A8
:101D6000E5407FF431AFBDE8F88F0000000401408A
:101D70000000111000100240000001400008014066
:101D8000000C014000100140001401400AB1016143
:101D900070470904FBE700000148806870470000B5
:101DA0001C00002070B5040025D094F83D000025EB
:101DB00020B984F83C50204600F004FA242084F82E
:101DC0003D002068016821F0010101602068016880
:101DD00041F4004101602068016821F40041016084
:101DE00000F044FB4D4A6168914201D84C4900E043
:101DF0004C49884201D2012070BD4B492368B0FB99
:101E0000F1F15E6826F03F060E435E606368934220
:101E100006D94FF4967359434FF47A73B1FBF3F13B
:101E20002368491C1E6A26F03F0631431962616827
:101E3000914210D84900401EB0FBF1F2521CC2F38F
:101E40000B02042A01D2042022E0B0FBF1F0401C76
:101E5000C0F30B001CE0A268F2B301EBC10303EB7B
:101E60000116431EB3FBF6F35B1C43F480431B05D2
:101E700049D092B301EBC10202EB0111401EB0FB4D
:101E8000F1F0401CC0F30B0040F4804040F40040EF
:101E90002168CA694CF6FF739A431043C861D4E9BC
:101EA000071001432068026822F0C002114301605C
:101EB000D4E9030101432068826848F2FF339A4362
:101EC00011438160D4E9050108432168CA6822F002
:101ED000FF021043C86001E00EE016E020680168D0
:101EE00041F0010101602564202084F83D00256354
:101EF00084F83E50002070BD01EB4106431EB3FB49
:101F0000F6F35B1CB3E70120C2E701EB4101401E81
:101F1000B0FBF1F0401CC0F30B00B7E7A086010056
:101F200080841E0000093D0040420F002DE9FF4F54
:101F300081B089460446FFF72FFF054694F83D001F
:101F40004FF0010820287DD1192301225049204655
:101F5000009500F0CDFF002874D194F83C000128D2
:101F600070D0012084F83C0020680168C90703D1C3
:101F7000016841F0010101602068016821F40061FD
:101F80000160242084F83D00002626644148E06278
:101F90004FF0011B20272068016841F48071016027
:101FA0000095002259462046049B00F0A1FF50B145
:101FB00020680068C00502D54FF40070206403203B
:101FC00005B0BDE8F08F216809F0FE000861FFF759
:101FD000E3FE2168054648694969C0F34000C1F342
:101FE00080214FF0A00A0FE0FFF7D6FE411B0498B6
:101FF000814200D808B984F83DA021684869496940
:10200000C0F34000C1F3802194F83D20A02A02D003
:1020100008B90029E8D084F83D7020684169C943B7
:10202000890716D4016841F4007101602068416994
:1020300080691923012216492046009500F058FFB7
:10204000B8B900E021E084F83D7084F83C600020DD
:10205000B6E7016841F40071016021686FF48060A7
:102060004861192301220A492046009500F040FFEB
:1020700008B10120A4E7039808F1010880458AD33C
:1020800084F83D7084F83C60F3E7022098E7000094
:10209000020010000000FFFF2DE9F84F1F46904698
:1020A0008A460446DDF82890FFF776FE054694F848
:1020B0003D0020287FD11923012240492046009568
:1020C00000F016FF002876D194F83C00012872D069
:1020D000012084F83C0020680168C90703D1016829
:1020E00041F0010101602068016821F40061016094
:1020F000212084F83D00102084F83E00002626644C
:10210000C4F824806785608D20852D48E0622B46C9
:102110004A465146204600F077FE90B92068416952
:102120008069009036E02A464946204600F05FFF6D
:1021300050B1206C042804D12068016841F400717A
:1021400001600120BDE8F88F606A216800780861AD
:10215000606A401C6062618D491E6185218D491E47
:1021600089B2218522685369DB435B070BD451B1E7
:1021700000781061606A401C6062608D401E60855E
:10218000208D401E20852A464946204600F08AFEC2
:102190000028CED1208D0028C5D154F83D0B016810
:1021A00041F400710160202004F81E09E67766778B
:1021B0000020C7E7FFE70220C4E70000020010008C
:1021C0000000FFFF10B586B000210091019102913F
:1021D000039100680F4988421AD10F4CA06940F062
:1021E0000800A061A069694600F008000490C020C2
:1021F000009012200190032003900848FFF7D6FCBE
:10220000E06940F40010E061E06900F4001004901F
:1022100006B010BD0054004000100240000C014008
:102220000248816802781144816070471C000020D8
:10223000074810B5016841F010010160032000F06B
:102240006DF80F2000F006F800F024F8002010BD13
:102250000020024070B50D4D04464FF47A71287885
:10226000B1FBF0F00A490968B1FBF0F000F0D4FAD4
:1022700048B9102C07D200222146501E00F02EF83B
:1022800000206C6070BD012070BD00001C000020AB
:1022900028000020094808B5816941F001018161E9
:1022A000816901F001010091C16941F08051C16172
:1022B000C06900F08050009008BD0000001002408E
:1022C000002809DB00F01F02012191404009800035
:1022D00000F1E020C0F8001170470000F0B40E4B90
:1022E0001B680C46C3F30223C3F10705042D00D974
:1022F0000425191D072901D2002300E0DB1E012659
:1023000006FA05F1491E214099409E40761E16406E
:102310003143F0BC00F0ECBF0CED00E0064900F0EA
:10232000070208684FF6FF03184040EA0220034AFC
:1023300010430860704700000CED00E00000FA0553
:102340002DE9F0470F46050061D0434E306800F09C
:102350000700B84209D2306820F0070038433060E7
:10236000306800F00700B84251D128683B4C810723
:1023700012D5400703D5606840F4E06060602878BB
:10238000000703D5606840F4605060606068A96829
:1023900020F0F000084360602878C00728D0686803
:1023A000012810D02168022810D0890700292EDAD0
:1023B000616821F0030101436160FFF7EDFC804695
:1023C00041F288390DE021688903EFE78901EDE7E3
:1023D000FFF7E2FCA0EB0801494502D90320BDE864
:1023E000F0876068696800F00C00B0EB810FEFD1F6
:1023F000306800F00700B8420BD9306820F00700C1
:1024000038433060306800F00700B84201D0012046
:10241000E5E72878400705D56068E96820F4E060C2
:10242000084360602878000706D56068296920F4B1
:10243000605040EAC100606000F028F86168084A16
:10244000C1F30311515CC8400649086006480068A2
:10245000FFF700FF0020C2E700200240001002400A
:10246000FC3800082800002020000020044805490E
:1024700000684968044AC1F30221515CC8407047B2
:1024800028000020001002400C39000812A185B07D
:102490000FC98DE80F0014A0144A00680490516819
:1024A000134801F00C03042B10D0082B0ED1C1F3FC
:1024B0008343C9031DF803000AD5516804AAC1F378
:1024C0004041515C0A4A5043B0FBF1F005B07047FF
:1024D00008494843FAE70000020304050607080913
:1024E0000A0B0C0D0E0F101001020000001002402C
:1024F00000127A0000093D002DE9F84F040070D069
:102500002078C04DC00749D06868C0F38100012819
:1025100007D06868C0F38100022809D16868C00349
:1025200006D52868800339D560680028E7D035E0F3
:102530006068B0F5803F0BD010B1B0F5A02F11D07E
:10254000286820F480302860286820F4802002E089
:10255000286840F480302860606890B1FFF71CFC68
:1025600006460AE0286840F480202860F0E700BFB3
:10257000FFF712FC801B642873D828688003F7D506
:102580000CE0FFF709FC064605E000BFFFF704FC7E
:10259000801B6428F0D828688003F7D420789A4EEE
:1025A00080074FF001094FF0000839D5686810F036
:1025B0000C0F07D06868C0F38100022809D1686851
:1025C000C00306D42868800714D52069012808D1E3
:1025D00010E02069B0B1C6F80090FFF7DDFB0746B8
:1025E00005E00AE1FFF7D8FBC01B0228C4D8286821
:1025F0008007F7D52868616920F0F80040EAC1003B
:1026000028600DE0C6F80080FFF7C6FB074604E02F
:10261000FFF7C2FBC01B022823D828688007F7D425
:10262000207800072CD57948A169D9B1C0F800906D
:10263000FFF7B2FB074604E0FFF7AEFBC01B022822
:102640000FD8686A8007F7D571484FF4FA510068CF
:10265000B0FBF1F0009000BF0098411E0091FAD24B
:102660000EE080E0C0F80080FFF796FB074604E02C
:10267000FFF792FBC01B022875D8686A8007F7D461
:102680002078400760D5E8690027C00008D4E869D1
:1026900040F08050E861E869012700F08050009028
:1026A0005C480168C90513D40168834641F4807110
:1026B0000160FFF771FB824606E000BFFFF76CFB8D
:1026C000A0EB0A0064284ED8DBF80000C005F5D561
:1026D000E06801280AD008B1052813D0286A20F044
:1026E00001002862286A20F0040002E0286A40F015
:1026F00001002862E06841F2883B98B1FFF74CFB8B
:1027000082460BE0286A40F004002862EEE700BF32
:10271000FFF742FBA0EB0A0159455AD8286A800707
:10272000F6D50CE0FFF738FB824605E0FFF734FBF7
:10273000A0EB0A0159454CD8286A8007F6D41FB18E
:10274000E86920F08050E861E06988B36968C1F306
:102750008101022944D00228C6F8608004D0FFF726
:102760001BFB044638E034E0FFF716FB074604E0A5
:10277000FFF712FBC01B02282BD828688001F7D472
:10278000206AB0F5803F05D16868A16820F4003068
:1027900008436860D4E908010843696821F47411AA
:1027A00008436860C6F86090FFF7F6FA044606E052
:1027B00025E000BFFFF7F0FA001B022809D82868BF
:1027C0008001F7D51BE000BFFFF7E6FA001B0228E7
:1027D00002D90320BDE8F88F28688001F4D40EE008
:1027E0000128F7D06868226A00F48031914204D150
:1027F000616A00F47010884201D00120EAE70020ED
:10280000E8E700000010024000004242800442421B
:10281000280000200070004010B5401EB0F1807FFD
:1028200001D3012010BD4FF0E02460610F2160173B
:1028300000F05EFD0020A06107202061002010BD97
:102840007047704770B590F83C20012A26D00124CB
:1028500080F83C40022280F83D2003685A689D6859
:1028600022F070060A6832435A600D4B02689A42A1
:1028700008D0B2F1804F05D00A4B9A4202D00A4BE1
:102880009A4204D1496825F080031943916080F889
:102890003D40002180F83C10084670BD022070BD0C
:1028A000002C0140000400400008004070B50546BF
:1028B000007F012822D1254C207870B101281DD13C
:1028C0000021284600F058FAA060296800264E62D0
:1028D0006168884213D9401A19E00021284600F0A7
:1028E0004BFA6060012020702868016A21F00A011B
:1028F00001622868016A41F00201016270BD8142F3
:1029000001D8E06804E04FF6FF72511A0844E06015
:1029100000F067FE0E4A0F4B00F076FE4FF0FF32DC
:1029200000F0A6FF00F030FE206126702868016AE2
:1029300021F00A0101622868016A01620648006804
:10294000C16821F00201C16070BD000008000020D4
:102950009CC420B07268A13F800000202DE9F041A6
:10296000054690F83C000C46012836D0012085F839
:102970003C008AB3042A42D02868082A51D0D4E9FE
:102980000023E168066A26F480560662C669076A73
:1029900026F4407646EA03234FF6FF7606EA013135
:1029A00023F4704319434FF4005627F4005306EA0A
:1029B00002321A43C16102622868C16921F4406190
:1029C000C1612868C169A26841EA0221C161002091
:1029D00085F83C00BDE8F08101E00220FAE7D4E987
:1029E0000012E368286800F027FC2868816921F05C
:1029F0000C01816128688169A26811430FE0D4E964
:102A00000012E368286800F043FC2868816921F41B
:102A10004061816128688169A26841EA022181617F
:102A2000D5E7D4E90027267B016A21F48071016291
:102A3000C169036A21F00301394321F0F00731072E
:102A40004FF4007647EA116123F4007306EA02228C
:102A50001A43C16102622868C16921F00C01C16199
:102A60002868C169A2681143B0E710B5040003D01B
:102A700094F83D0010B107E0012010BD002084F85B
:102A80003C00204600F01EF8022084F83D00211D85
:102A9000206800F08DFB012084F8460084F83E0099
:102AA00084F83F0084F8400084F8410084F8420034
:102AB00084F8430084F8440084F8450084F83D001D
:102AC000002010BD00B585B0002100910191029158
:102AD00003910068124988421FD11248816941F46C
:102AE00000618161816901F400610491816941F0B3
:102AF000040181618069694600F0040004904FF48C
:102B0000807000900848FFF751F8002211461B2002
:102B1000FFF7E4FB1B20FFF7D3FB05B000BD00006F
:102B2000002C0140001002400008014010B504468E
:102B300051B104290DD0082910D094F8410094F81F
:102B40004520012811D10EE094F83E0094F842206F
:102B5000F7E794F83F0094F84320F2E794F8400038
:102B600094F84420EDE7012A01D0012010BD022095
:102B700051B1042911D0082918D084F8410084F8F3
:102B800045000C291BD136E084F83E0084F8420051
:102B90002068C26842F0020210E084F83F0084F826
:102BA00043002068C26842F0040207E084F8400055
:102BB00084F844002068C26842F00802C260012222
:102BC000206800F02BFB0E492068884208D0B0F145
:102BD000804F05D00B49884202D00B49884204D16E
:102BE000816801F00701062903D0016841F0010165
:102BF0000160002010BD2068C26842F01002DDE7CD
:102C0000002C0140000400400008004070B504465C
:102C1000006801694FF00005C943890715D4C168F0
:102C2000C943890711D4E91E01610120207720687A
:102C300080698007204602D0FFF738FE04E000F0EC
:102C400098F8204600F096F8257720680169C94376
:102C5000490717D4C168C943490713D46FF0040169
:102C60000161022020772068806910F4407F2046AF
:102C700002D0FFF71BFE04E000F07BF8204600F0D6
:102C800079F8257720680169C943090716D4C16816
:102C9000C943090712D46FF00801016104202077AD
:102CA0002068C0698007204602D0FFF7FFFD04E0DE
:102CB00000F05FF8204600F05DF825772068016994
:102CC000C943C90617D4C168C943C90613D46FF0F4
:102CD00010010161082020772068C06910F4407F4E
:102CE000204602D0FFF7E2FD04E000F042F8204663
:102CF00000F040F8257720680169C943C90708D169
:102D0000C168C943C90704D1891E0161204600F08A
:102D100032F820680169C943090609D4C168C9436A
:102D2000090605D46FF0800101612046FFF788FD98
:102D300020680169C943490609D4C168C9434906E5
:102D400005D46FF040010161204600F02AF82068A8
:102D50000169C94389060BD4C168C943890607D4F0
:102D60006FF0200101612046BDE87040FFF769BDAA
:102D700070BD7047704770470246002041B104297A
:102D800009D008290AD00C2901D11068006C7047BD
:102D90001068406B70471068806B70471068C06B9C
:102DA0007047704710B50A4C012280212046FEF77B
:102DB000EDFF0A20FEF7E8FE002280212046FEF704
:102DC000E5FF04480068C16841F00201C16010BD20
:102DD0000008014080000020FEE701684A69D243F4
:102DE00052050FD46FF480624A61002140F8301F11
:102DF000202242738173026942F00402026101736E
:102E00000120704700207047F8B50446C06A1E468E
:102E10000D461746082807D0012805D010F5803F39
:102E200002D0206B122804D12068016841F480711F
:102E30000160134600224FF001112046009600F079
:102E400057F840B120680068C00502D54FF4007003
:102E500020640320F8BD2069B0F5804F0ED0062015
:102E6000216800EAD51040F0F000086133463A4688
:102E70000B49204600F070F878B902E005F0FE003A
:102E800000E0E8B221680861054933463A46891FE7
:102E9000204600F061F80028DCD00120F8BD0000D9
:102EA0000800010070B516460D4604460DE02046A8
:102EB000FFF793FF08B1012070BD681C05D0FEF735
:102EC0006BFF801BA84207D835B120684069C0431A
:102ED0004007ECD4002070BD002044F8300F2021C2
:102EE0006173A073216941F0200121612073E2E741
:102EF0002DE9F0471E4690460D460446C1F30747AC
:102F0000DDF8209008E0701C06D0FEF745FFA0EB2E
:102F10000900B0420FD876B12068012F18D080691F
:102F200025EA00000004000C14D000214145EAD03D
:102F30000020BDE8F087002044F8300F20216173A5
:102F4000A073216941F02001216120730120F0E785
:102F50004069E5E70121E9E72DE9F0479A46914606
:102F60000E46044600254FF02008C1F3074725E030
:102F700020684069C043400514D42068016841F4CA
:102F80000071016021686FF480604861256384F8F6
:102F90003D8084F83E50206C40F00400206484F8AA
:102FA0003C501FE0B9F1FF3F08D0FEF7F5FEA0EB63
:102FB0000A0149450CD8B9F1000F09D02068012F4A
:102FC00013D0806926EA00000004000C0BD0CFE784
:102FD00044F8305F84F80D80A573206940F020002C
:102FE000206125730120BDE8F0874069EAE770B5EC
:102FF00016460D4604460DE02046FFF7EEFE08B1EA
:10300000012070BD681C05D0FEF7C6FE801BA842DB
:1030100007D835B120684069C0430006ECD40020D1
:1030200070BD002044F8300F20216173A073216926
:1030300041F0200121612073E2E700002DE9F04317
:1030400085B000241D480094019402940394816982
:1030500041F004018161816901F0040104918169F9
:1030600041F0080181618069DFF8548000F00800B8
:103070000490002280214046FEF788FEDFF844904D
:103080004FF48057002239464846FEF77FFE8020E5
:1030900001250226CDE90005CDE9024669464046F4
:1030A000FEF784FD00970396CDE901546946484632
:1030B000FEF77CFD05B0BDE8F08300000010024083
:1030C00000080140000C014010B586B000241948EA
:1030D00005940494009401940294154903940160AA
:1030E0003F21C0E901144FF6FE71C0E903144461A9
:1030F0008461FFF7BAFC08B172B6FEE7049404A934
:103100000C480594FFF79EFB08B172B6FEE701205C
:10311000CDE9004002940022694606480394FFF777
:103120001DFC002801D072B6FEE706B010BD0000FD
:10313000002C014080000020FEE7FEE7704770474A
:10314000FFF76EB830B58FB028216846FDF7C3F899
:1031500014210AA8FDF7BFF802250120049000956C
:103160001020059000244FF46010CDE90840079529
:103170006846FFF7C1F908B172B6FEE70F20CDE946
:103180000A054FF48060CDE90C4002210AA80E9494
:10319000FFF7D6F8002801D072B6FEE70FB030BDB9
:1031A000704700000148FFF731BD0000800000209B
:1031B000F0B50268164B174C174D4FF080479842F8
:1031C00005D0B84203D0A04201D0A84203D122F0DA
:1031D00070064A683243984205D0B84203D0A042F4
:1031E00001D0A84203D122F44074CA6822434C693A
:1031F00022F08002224302608A68C2620A68826208
:10320000984201D10969016301214161F0BD0000CB
:10321000002C0140000400400008004010B501F0FF
:103220001F030121046A99408C430462016A9A4099
:103230001143016210BD000070B5046A24F001045E
:1032400004628469056A0F4EB04208D0B0F1804F25
:1032500005D00D4EB04202D00C4EB04203D124F046
:103260000304144301E044F001041A0724F0F004BD
:1032700044EA126225F00A0301F00A01194382614F
:10328000016270BD002C01400004004000080040B5
:1032900030B5046A24F0100404628469056A24F4D9
:1032A000407444EA022222F470444FF6FF7202EAAC
:1032B00003322243A02425F0A00304EA011119439C
:1032C0008261016230BDFEE7490050EAC12018BFAB
:1032D00004204A0D18BF40F0010040F2FF72B2EB2B
:1032E000515F08BF40F00200012808BF0520704769
:1032F0000907090E002804DB00F1E02080F8001423
:10330000704700F00F0000F1E02080F8141D7047B6
:1033100030380A2801D2012070470020704710B5CC
:10332000012000F099F8BDE810400320FEF72CBC06
:1033300070B505463220FEF727FC2A4C28460522A8
:1033400065604FF4FA752B464E21FEF7EFFD00281D
:1033500045D02B4605227E216068FEF7E7FD08B1C7
:10336000002070BD7E2020702D20FEF70DFC302047
:1033700000F072F80520FEF707FC302000F06CF832
:103380000120FEF701FC302000F066F80820FEF76F
:10339000FBFB202000F060F80820FEF7F5FB28205A
:1033A00000F05AF80120FEF7EFFB082000F054F877
:1033B0000120FEF7E9FB012000F04EF80320FEF7A4
:1033C000E3FB062000F048F80120FEF7DDFB0C20AF
:1033D00000F042F80320FEF7D7FB012070BD4E201D
:1033E000C1E70000000000200FB410B588B00BAAA0
:1033F00001A80A99FCF73EFF00241FE001A804235E
:10340000015D080101F0F00141F00D028DF8182076
:1034100041F009018DF8191040F00D018DF81A10D6
:1034200040F009008DF81B00C8200090094806AA4A
:1034300001784068FEF730FE641CE4B201A8FCF796
:103440002BFFA04201D9102CD8D308B010BC5DF8D6
:1034500014FB0000000000201CB5010100F0F0008A
:1034600040F00C028DF8042040F008008DF80500B3
:1034700041F00C008DF8060041F008008DF80700BF
:10348000C82000900348042301AA01784068FEF791
:1034900003FE1CBD00000020FEF7CAFEFFF752FE2F
:1034A000FFF7CCFDFFF710FE184817494FF4804294
:1034B00001601749416000218160C0E90312416148
:1034C0008161C1610162FEF76DFC08B172B6FEE771
:1034D0000E4800215430FFF729FB0C48FFF728FF66
:1034E00020B1FFF71CFF0BA0FFF77EFF0A4C00BFC7
:1034F000FFF758FCFFF713FF08A02169FFF774FFDF
:10350000C820FEF741FBF3E7005400402C000020E8
:10351000A08601006F6B6500080000202564000094
:1035200010B500290AD00878002807D0054878444B
:10353000FDF718FF002801D0002010BD0248784494
:1035400010BD000002050000FA04000010B50029BB
:103550000AD00878002807D005487844FDF702FF14
:10356000002801D0002010BD0248784410BD0000A2
:10357000F2040000EA04000002494FF0000000F0ED
:1035800045B900BF0000F87F4FEA1153A3F58063EF
:10359000D3F11E03A8BFD3F1200C08DB4FF000428B
:1035A00042EAC12252EA505232FA03F0704709420D
:1035B0000BD4102BC4BF0020704703F5787CBCF1FE
:1035C000FF3F05D04FF0FF3070474FF000007047CD
:1035D00070B500F0C3F800BF499224800020704706
:1035E000F0E7B0FA80F310FA03F10AD0C3F11D033B
:1035F00003F580634FEA41504FEA035202EBD121B9
:1036000070474FF000007047DFF848C170B51CEA02
:10361000111E1EBF1CEA13159EEA0C0F95EA0C0F33
:1036200000F06F8081EA030423EA4C134EEAD47E53
:1036300021EA4C1141F4801143F48013AE44A1FB04
:10364000024CA0FB0365AEF17F7E361955EB0C05ED
:10365000A1FB034C4CF10003A0FB021C16EB0C0673
:10366000654153F10003094218BF46F0010613F407
:10367000007F0BD14FEA03314FEA0530340341EAB2
:10368000155140EA16506FF003020AE04FEAC321D9
:103690004FEAC520F40241EA555140EA56506FF016
:1036A000020202EB2E4201EB025585EACE710AD0EE
:1036B0005FEA440C18BF24F0004450F1000041F1CF
:1036C000000120EAD47040F2FE7C624500D270BD59
:1036D000A84214BF4FF080444FF04044002E08BF72
:1036E0000024BEF1806FA8BFA1F1C041BDE87040C9
:1036F00080F282804FF0000001F1C04101F00041F2
:1037000070479EEA0C0F0CEA131518BF95EA0C0FD0
:1037100006D04FF0000081EA030E0EF0004170BDAC
:1037200000F01CF88900013E00F007B800F009B86D
:103730004FEA430C5FEA5C5C08D081EA030100F0C9
:103740005BB84FEA410C5FEA5C5CF6D14FF00000D9
:10375000014970470000FF070000F87F0EF1020EDC
:103760002EF0030E5EF8046B364205D4012A43EBBB
:10377000030515F5001F12D8012841EB010C1CF5BB
:10378000001F0CD80ED14FEAD17C15F5001F0CEBB1
:103790004C0C0CF1020C08BF4CEBD37C04E04FF056
:1037A000080C01E04FEAD37C0CEB4C0526FA05F639
:1037B00006F00706B6F1040C06D20EEB860CBDE847
:1037C00070404CF0010C6047DFE80CF0090B02027E
:1037D0004FF000414FF00000A1F5002170BD1946E7
:1037E0001046012851EB010418BFD4F5001484BF22
:1037F000002001F0004170BD0808A0F500114FEA5B
:1038000031017047FDF7BBB9FDF7F0BA0CF00F03BB
:10381000092B08BF082000F059800A2B0BD0082B79
:1038200018BF704708BF1CF0400F0AD04FF00000CF
:103830004FF0000170471CF0400F18BF4FF00040E0
:1038400070471CF0100F08D020F0704300F07F424A
:1038500042EAD3014FEA4370704700F0604021F024
:103860007F4242EA000201F07F4040EA72707047F6
:103870004FF0FF0C4CF4E06C1CEA11531CBF9CEAA7
:10388000030C9445C2BFDA4201EB02517047002B92
:103890000DD0BCF1000F0FD0002A01F00041A4BFF1
:1038A00041F0E04141F07F614FF00000704701F0CE
:1038B00000414FF00000704750EA01334FF09B0C7D
:1038C00018BF4CF0806C7FF457AE70471CF4801F1B
:1038D00011D01CF4E02F03D06FEACC3149007047BF
:1038E0004FF04050EFF3008222F0704242EA0002B3
:1038F00082F3008870474FF000007047000000001E
:10390000000000000102030406070809000000008F
:1039100001020304000000000000000030313233D7
:1039200034353637383941424344454640305800F3
:103930003031323334353637383961626364656625
:103940004030780004000008000000000000000281
:1039500000010000103031323334353637383961E8
:1039600062636465667870003031323334353637DF
:103970003839414243444546585000000240000057
:10398000000000A00000000005400000000000C88A
:10399000000000000C4000000000409C00000000FF
:1039A000194000000020BCBE0000000034400000B0
:1039B000BFC91B8E00000004B5400000504BCFD0A3
:1039C0006607E2CF010000006C4100003E8251AA70
:1039D000DFEEA73401000000D9420000DCB5A0E210
:1039E0003A301F97FFFFFFFFB4450000FD25A0C838
:1039F000E9A3C14FFFFFFFFFFF3F00000000008071
:103A000000000000FF3F00000000008000000000F8
:103A10005C3B0008000000202C000000280100088A
:103A2000883B00082C000020FC0600004401000830
:103A30001C00000043000000F8FFFFFF0C00000026
:103A40000E0000000F0000002E000000100100001A
:103A500043000000F8FFFFFF00404040404040406E
:103A60004040414141414140404040404040404051
:103A700040404040404040404005020202020202F5
:103A80000202020202020202022020202020202044
:103A90002020200202020202020290909090909058
:103AA0001010101010101010101010101010101016
:103AB000101010100202020202028888888888888A
:103AC0000808080808080808080808080808080876
:103AD000080808080202020240000000000000007E
:103AE00000000000000000000000000000000000D6
:103AF00000000000000000000000000000000000C6
:103B000000000000000000000000000000000000B5
:103B100000000000000000000000000000000000A5
:103B20000000000000000000000000000000000095
:103B30000000000000000000000000000000000085
:103B40000000000000000000000000000000000075
:103B50000000000000000000000000000000000065
:103B60000000000000000000000000000000000055
:103B70000000000000000000010000001000000034
:083B8000000000000024F40025
:04000005080000ED02
:00000001FF
